FI001000001000009450000000000GUILHERME PEREIRA VIEIRA      GUILHERME Rua HERCILIA GONCALVES DOS SAN                    GUARAPIRANGA        SAO PAULO           SP04912040                              D1100589121        25111997MSSAO PAULO           SP000000800401SP00101001N382487298690000000000000000000500997007      SSP  SP0101001                                                                                                            0000000000000000000000000000000000010            00000000000000000000000000000000000000000000    00000000000  0000000000000000000000000000000000 00000                 00000000000000SSNS000000N0               00000                     000000  1000000000000000 00000000000000000000000000000000000000000 000000 N0000000000000000000000000000000000000000000000000000000000000000000000000000000000000000000000000 000000000000000000000000000000000000000000000000
FI001000002000011140000000000MAIKON PEREIRA DA SILVA       MAIKON PERRua OITICICA                                      VILA OLIVINA        CARAPICUIBA         SP06365760                              D1100418930        12041995MSSAO PAULO           SP000000100376SP00101001N428521058450000000000000000000483513763      SSP  SP0101001                                                                                                            0000000000000000000000000000000000010            00000000000000000000000000000000000000000000    00000000000  0000000000000000000000000000000000 00000                 00000000000000SSNS000000N0               00000                     000000  1000000000000000 00000000000000000000000000000000000000000 000000 N0000000000000000000000000000000000000000000000000000000000000000000000000000000000000000000000000 000000000000000000000000000000000000000000000000
FI001000003000011140000000000WELLINGTON PEREIRA DA SILVA   WELLINGTONRua MARACUJA NATAL                                VILA NATAL          SAO PAULO           SP04863010                              D1100592432        24071995MSSAO PAULO           SP000000100388SP00101001N439521448780000000000000000000477136345      SSP  SP0101001                                                                                                            0000000000000000000000000000000000010            00000000000000000000000000000000000000000000    00000000000  0000000000000000000000000000000000 00000                 00000000000000SSNS000000N0               00000                     000000  1000000000000000 00000000000000000000000000000000000000000 000000 N0000000000000000000000000000000000000000000000000000000000000000000000000000000000000000000000000 000000000000000000000000000000000000000000000000
FI001000004000011140000000000LUANA GOMES PEREIRA           LUANA GOMERua JOSE CAPRIOTTI                                VILA CAPRIOTTI      CARAPICUIBA         SP06382030                              D1100418715        24041996FSSAO PAULO           SP000000700395SP00101001N451840508090000000000000000000389531285      SSP  SP0101001                                                                                                            0000000000000000000000000000000000010            00000000000000000000000000000000000000000000    00000000000  0000000000000000000000000000000000 00000                 00000000000000SSNS000000N0               00000                     000000  1000000000000000 00000000000000000000000000000000000000000 000000 N0000000000000000000000000000000000000000000000000000000000000000000000000000000000000000000000000 000000000000000000000000000000000000000000000000
FI001000005000011140000000000RAPHAEL DE CARVALHO PEREIRA   RAPHAEL DERua JOAO DIAS DE VERGARA                          JARDIM OLINDA       SAO PAULO           SP05765250                              D1100584518        05051995MSSAO PAULO           SP000000100387SP00101001N43765886874000000000000000000047869152X      SSP  SP0101001                                                                                                            0000000000000000000000000000000000010            00000000000000000000000000000000000000000000    00000000000  0000000000000000000000000000000000 00000                 00000000000000SSNS000000N0               00000                     000000  1000000000000000 00000000000000000000000000000000000000000 000000 N0000000000000000000000000000000000000000000000000000000000000000000000000000000000000000000000000 000000000000000000000000000000000000000000000000
FI001000006000011130000000000LEONARDO HENRIQUE DE OLIVEIRA LEONARDO HRua GETULIO VARGAS                                JARDIM VARGINHA     SAO PAULO           SP04857115                              D1100593814        30011998MSSAO PAULO           SP000000200414SP00101001N47739103802000000000000000000053081156X      SSP  SP0101001                                                                                                            0000000000000000000000000000000000010            00000000000000000000000000000000000000000000    00000000000  0000000000000000000000000000000000 00000                 00000000000000SSNS000000N0               00000                     000000  1000000000000000 00000000000000000000000000000000000000000 000000 N0000000000000000000000000000000000000000000000000000000000000000000000000000000000000000000000000 000000000000000000000000000000000000000000000000
FI001000007000011130000000000LUAN DOS SANTOS FRANCA        LUAN DOS SRua PEDRO GERMI                                   JARDIM SONIA        SAO PAULO           SP04458140                              D1100561277        19021997MSSAO PAULO           SP000000800401SP00101001N449967838260000000000000000000509092317      SSP  SP0101001                                                                                                            0000000000000000000000000000000000010            00000000000000000000000000000000000000000000    00000000000  0000000000000000000000000000000000 00000                 00000000000000SSNS000000N0               00000                     000000  1000000000000000 00000000000000000000000000000000000000000 000000 N0000000000000000000000000000000000000000000000000000000000000000000000000000000000000000000000000 000000000000000000000000000000000000000000000000
FI001000008000011130000000000ANDERSON GUILHERME DOS SANTOS ANDERSON GRua BENTO BARROSO PEREIRA                         JARDIM IBIRAPUERA   SAO PAULO           SP05815085                              D1100585186        09031999MSSAO PAULO           SP000000600414SP00101001N475690108500000000000000000000525171216      SSP  SP0101001                                                                                                            0000000000000000000000000000000000010            00000000000000000000000000000000000000000000    00000000000  0000000000000000000000000000000000 00000                 00000000000000SSNS000000N0               00000                     000000  1000000000000000 00000000000000000000000000000000000000000 000000 N0000000000000000000000000000000000000000000000000000000000000000000000000000000000000000000000000 000000000000000000000000000000000000000000000000
FI001000009000011130000000000CAIO FERREIRA BISPO           CAIO FERRERua DRUMOND DE ANDRADE                            JARDIM IPORA        SAO PAULO           SP04865065                              D1100597964        03111997MSSAO PAULO           SP000000900401SP00101001N456265088560000000000000000000381659215      SSP  SP0101001                                                                                                            0000000000000000000000000000000000010            00000000000000000000000000000000000000000000    00000000000  0000000000000000000000000000000000 00000                 00000000000000SSNS000000N0               00000                     000000  1000000000000000 00000000000000000000000000000000000000000 000000 N0000000000000000000000000000000000000000000000000000000000000000000000000000000000000000000000000 000000000000000000000000000000000000000000000000
FI001000010000011130000000000VICTOR HUGO MARQUES DA SILVA  VICTOR HUGRua ANTONIO RIDOLFI                               JARDIM ARCO-IRIS    SAO PAULO           SP04863630                              D1100593808        28011998MSSAO PAULO           SP000000400414SP00101001N347986028170000000000000000000386609639      SSP  SP0101001                                                                                                            0000000000000000000000000000000000010            00000000000000000000000000000000000000000000    00000000000  0000000000000000000000000000000000 00000                 00000000000000SSNS000000N0               00000                     000000  1000000000000000 00000000000000000000000000000000000000000 000000 N0000000000000000000000000000000000000000000000000000000000000000000000000000000000000000000000000 000000000000000000000000000000000000000000000000
FI001000011000011130000000000DIEGO BARROZO DOS SANTOS      DIEGO BARRAvenida YERVANT KISSAJIKIAN                       VILA CONSTANCIA     SAO PAULO           SP04657000                              D1109628408        27011999MSTERESINA            SP000000700401SP00101001N466770438190000000000000000000391552454      SSP  SP0101001                                                                                                            0000000000000000000000000000000000010            00000000000000000000000000000000000000000000    00000000000  0000000000000000000000000000000000 00000                 00000000000000SSNS000000N0               00000                     000000  1000000000000000 00000000000000000000000000000000000000000 000000 N0000000000000000000000000000000000000000000000000000000000000000000000000000000000000000000000000 000000000000000000000000000000000000000000000000
FI001000012000011130000000000LUCAS JOAQUIM DA SILVA SATELESLUCAS JOAQRua ZINIA                                         NARITA GARDEM       VARGEM GRANDE PAULISSP06730000                              D1109619946        09041994MSSAO PAULO           SP000000900355SP00101001N426312618102072599474000000000408159410      SSP  SP0101001                                                                                                            0000000000000000000000000000000000010            00000000000000000000000000000000000000000000    00000000000  0000000000000000000000000000000000 00000                 00000000000000SSNS000000N0               00000                     000000  1000000000000000 00000000000000000000000000000000000000000 000000 N0000000000000000000000000000000000000000000000000000000000000000000000000000000000000000000000000 000000000000000000000000000000000000000000000000
FI001000013000011130000000000ALEXSANDRO GABRIEL VIEIRA DOS ALEXSANDRORua GILBERTO FREYRE                               PARQUE RESID. COCAIASAO PAULO           SP04849000                              D1100593261        04061998MSSAO PAULO           SP000000400401SP00101001N473162648020000000000000000000501006497      SSP  SP0101001                                                                                                            0000000000000000000000000000000000010            00000000000000000000000000000000000000000000    00000000000  0000000000000000000000000000000000 00000                 00000000000000SSNS000000N0               00000                     000000  1000000000000000 00000000000000000000000000000000000000000 000000 N0000000000000000000000000000000000000000000000000000000000000000000000000000000000000000000000000 000000000000000000000000000000000000000000000000
FI001000014000011130000000000MATHEUS KILLER MARTINS MENDES MATHEUS KIRua TOMAS TEIXEIRA                                VILA CONSTANCIA     SAO PAULO           SP04658020                              D1100556221        15121997MSSAO PAULO           SP000000000419SP00101001N471775798000000000000000000000369647439      SSP  SP0101001                                                                                                            0000000000000000000000000000000000010            00000000000000000000000000000000000000000000    00000000000  0000000000000000000000000000000000 00000                 00000000000000SSNS000000N0               00000                     000000  1000000000000000 00000000000000000000000000000000000000000 000000 N0000000000000000000000000000000000000000000000000000000000000000000000000000000000000000000000000 000000000000000000000000000000000000000000000000
FI001000015000011130000000000THIAGO RODRIGUES VIEIRA       THIAGO RODRua RODRIGO TRIANA                                JARDIM NORONHA      SAO PAULO           SP04853020                              D1100552846        21041997MSSAO PAULO           SP000000900415SP00101001N449293778110000000000000000000393252966      SSP  SP0101001                                                                                                            0000000000000000000000000000000000010            00000000000000000000000000000000000000000000    00000000000  0000000000000000000000000000000000 00000                 00000000000000SSNS000000N0               00000                     000000  1000000000000000 00000000000000000000000000000000000000000 000000 N0000000000000000000000000000000000000000000000000000000000000000000000000000000000000000000000000 000000000000000000000000000000000000000000000000
FI001000016000011130000000000GABRIEL ALMEIDA LIMA          GABRIEL ALRua GASTAO RAUL DE FORTON BOUS                    JARDIM IPE          SAO PAULO           SP05797000                              D1100582490        18101998MS                    SP000000600401SP00101001N465009478000000000000000000000382898291      SSP  SP0101001                                                                                                            0000000000000000000000000000000000010            00000000000000000000000000000000000000000000    00000000000  0000000000000000000000000000000000 00000                 00000000000000SSNS000000N0               00000                     000000  1000000000000000 00000000000000000000000000000000000000000 000000 N0000000000000000000000000000000000000000000000000000000000000000000000000000000000000000000000000 000000000000000000000000000000000000000000000000
FI001000017000010470000000000JAQUELINE DA SILVA OLIVEIRA   JAQUELINE Rua MINAS GERAIS                                  JARDIM EMILIO CARLOSEMBU DAS ARTES      SP06820300                              D1100414943        15041998FSSAO PAULO           SP000000700414SP00101001N486919358200000000000000000000544817369      SSP  SP0101001                                                                                                            0000000000000000000000000000000000010            00000000000000000000000000000000000000000000    00000000000  0000000000000000000000000000000000 00000                 00000000000000SSNS000000N0               00000                     000000  1000000000000000 00000000000000000000000000000000000000000 000000 N0000000000000000000000000000000000000000000000000000000000000000000000000000000000000000000000000 000000000000000000000000000000000000000000000000
FI001000018000010470000000000IAGO DE LIMA FERREIRA BRUNETTIIAGO DE LIRua GUILHERME FLORENCE                            JARDIM IPE          SAO PAULO           SP05797320                              D1100582478        21091999MSSAO PAULO           SP000000900398SP00101001N469210218740000000000000000000509104496      SSP  SP0101001                                                                                                            0000000000000000000000000000000000010            00000000000000000000000000000000000000000000    00000000000  0000000000000000000000000000000000 00000                 00000000000000SSNS000000N0               00000                     000000  1000000000000000 00000000000000000000000000000000000000000 000000 N0000000000000000000000000000000000000000000000000000000000000000000000000000000000000000000000000 000000000000000000000000000000000000000000000000
FI001000019000010470000000000MIQUEIAS JOSE DE SANTANA      MIQUEIAS JRua BAIANOPOLIS                                   JARDIM ANGELA       SAO PAULO           SP04835190                              D1109660481        17071997MSSAO PAULO           SP000000800414SP00101001N443184378760000000000000000000502299885      SSP  SP0101001                                                                                                            0000000000000000000000000000000000010            00000000000000000000000000000000000000000000    00000000000  0000000000000000000000000000000000 00000                 00000000000000SSNS000000N0               00000                     000000  1000000000000000 00000000000000000000000000000000000000000 000000 N0000000000000000000000000000000000000000000000000000000000000000000000000000000000000000000000000 000000000000000000000000000000000000000000000000
FI001000020000010470000000000MARIA LUIZA CARDOSO           MARIA LUIZRua SALVADOR FURTADO DE SIQUEI                    CONJ. HABIT. BRIGADESAO PAULO           SP04840390                              D1100593336        17091996FSSAO PAULO           SP000000200401SP00101001N44603530838158052424980000000038876546X      SSP  SP0101001                                                                                                            0000000000000000000000000000000000010            00000000000000000000000000000000000000000000    00000000000  0000000000000000000000000000000000 00000                 00000000000000SSNS000000N0               00000                     000000  1000000000000000 00000000000000000000000000000000000000000 000000 N0000000000000000000000000000000000000000000000000000000000000000000000000000000000000000000000000 000000000000000000000000000000000000000000000000
FI001000021000010470000000000PALOMA CHAIM DOS SANTOS       PALOMA CHARua LEANDRO TEIXEIRA                              PARAISOPOLIS        SAO PAULO           SP05662060                              D1109851319        23111996FSSAO PAULO           SP000000500414SP00101001N47944526833000000000000000000050300859X      SSP  SP0101001                                                                                                            0000000000000000000000000000000000010            00000000000000000000000000000000000000000000    00000000000  0000000000000000000000000000000000 00000                 00000000000000SSNS000000N0               00000                     000000  1000000000000000 00000000000000000000000000000000000000000 000000 N0000000000000000000000000000000000000000000000000000000000000000000000000000000000000000000000000 000000000000000000000000000000000000000000000000
FI001000022000010920000000000BRUNO DE JESUS SANTOS         BRUNO DE JAvenida CORONEL MANUEL PY                         LAUZANE PAULISTA    SAO PAULO           SP02442090                              D1100220325        11081997MSSAO PAULO           SP000000600398SP00101001N452474678170000000000000000000394398373      SSP  SP0101001                                                                                                            0000000000000000000000000000000000010            00000000000000000000000000000000000000000000    00000000000  0000000000000000000000000000000000 00000                 00000000000000SSNS000000N0               00000                     000000  1000000000000000 00000000000000000000000000000000000000000 000000 N0000000000000000000000000000000000000000000000000000000000000000000000000000000000000000000000000 000000000000000000000000000000000000000000000000
FI001000023000000920000000000LARISSA COSTA SANTOS          LARISSA CORua GAZETA                                        VILA FACHINI        SAO PAULO           SP04327120                              D1100404914        29061998FSSAO PAULO           SP000000100416SP00101001N39203495800151870254850000000036999761X      SSP  SP0101001                                                                                                            0000000000000000000000000000000000010            00000000000000000000000000000000000000000000    00000000000  0000000000000000000000000000000000 00000                 00000000000000SSNS000000N0               00000                     000000  1000000000000000 00000000000000000000000000000000000000000 000000 N0000000000000000000000000000000000000000000000000000000000000000000000000000000000000000000000000 000000000000000000000000000000000000000000000000
FI001000024000000920000000000MAIARA DE SOUZA ARAUJO        MAIARA DE Rua ANUNCIACAO                                    JARDIM SANTO EDUARDOSAO PAULO           SP06823575                              D1100424466        24021998FSTABOAO DA SERRA     SP000000600414SP00101001N485209418772072221386100000000377072278      SSP  SP0101001                                                                                                            0000000000000000000000000000000000010            00000000000000000000000000000000000000000000    00000000000  0000000000000000000000000000000000 00000                 00000000000000SSNS000000N0               00000                     000000  1000000000000000 00000000000000000000000000000000000000000 000000 N0000000000000000000000000000000000000000000000000000000000000000000000000000000000000000000000000 000000000000000000000000000000000000000000000000
FI001000025000000920000000000FERNANDA CAROLINA SILVA E CASTFERNANDA CRua PRIMEIRO DE MAIO                              JARDIM JACIRA       ITAPECERICA DA SERRASP06850000                              D1100466949        02101997FSSAO PAULO           SP000000500409SP00101001N475676968352078000539700000000520960762      SSP  SP0101001                                                                                                            0000000000000000000000000000000000010            00000000000000000000000000000000000000000000    00000000000  0000000000000000000000000000000000 00000                 00000000000000SSNS000000N0               00000                     000000  1000000000000000 00000000000000000000000000000000000000000 000000 N0000000000000000000000000000000000000000000000000000000000000000000000000000000000000000000000000 000000000000000000000000000000000000000000000000
FI001000026000000920000000000BRUNA IANE SANTANA PEREIRA    BRUNA IANERua ADOLFO BASTIAN                                PARQUE IPE          SAO PAULO           SP05762151                              D1100468561        15061998FSPAO DE ACUCAR       SP000000100414SP00101001N48134797822212093961750000000039027821X      SSP  SP0101001                                                                                                            0000000000000000000000000000000000010            00000000000000000000000000000000000000000000    00000000000  0000000000000000000000000000000000 00000                 00000000000000SSNS000000N0               00000                     000000  1000000000000000 00000000000000000000000000000000000000000 000000 N0000000000000000000000000000000000000000000000000000000000000000000000000000000000000000000000000 000000000000000000000000000000000000000000000000
FI001000027000000920000000000VICTOR LUIZ DE OLIVEIRA MONTEIVICTOR LUIRua TOMAS TEIXEIRA                                VILA CONSTANCIA     SAO PAULO           SP04658020                              D1100321387        11051995MSDIADEMA             SP000000600387SP00101001N410039498512021083723800000000478114631      SSP  SP0101001                                                                                                            0000000000000000000000000000000000010            00000000000000000000000000000000000000000000    00000000000  0000000000000000000000000000000000 00000                 00000000000000SSNS000000N0               00000                     000000  1000000000000000 00000000000000000000000000000000000000000 000000 N0000000000000000000000000000000000000000000000000000000000000000000000000000000000000000000000000 000000000000000000000000000000000000000000000000
FI001000028000000920000000000CAROLINE BASTOS DE MELO       CAROLINE BRua MACAUBA NATAL                                 VILA NATAL          SAO PAULO           SP04863420                              D1100552760        03091997FSSAO PAULO           SP000000100414SP00101001N465003588051340620656400000000529058133      SSP  SP0101001                                                                                                            0000000000000000000000000000000000010            00000000000000000000000000000000000000000000    00000000000  0000000000000000000000000000000000 00000                 00000000000000SSNS000000N0               00000                     000000  1000000000000000 00000000000000000000000000000000000000000 000000 N0000000000000000000000000000000000000000000000000000000000000000000000000000000000000000000000000 000000000000000000000000000000000000000000000000
FI001000029000000920000000000REBECA SANTOS PATARELO        REBECA SANRua SANTA CLARA D'OESTE                           CONJUNTO HABITACIONASAO PAULO           SP04840670                              D1100597621        10081996FSSAO PAULO           SP000000300414SP00101001N446880148481420845522100000000372803003      SSP  SP0101001                                                                                                            0000000000000000000000000000000000010            00000000000000000000000000000000000000000000    00000000000  0000000000000000000000000000000000 00000                 00000000000000SSNS000000N0               00000                     000000  1000000000000000 00000000000000000000000000000000000000000 000000 N0000000000000000000000000000000000000000000000000000000000000000000000000000000000000000000000000 000000000000000000000000000000000000000000000000
FI001000030000000920000000000VITORIA COSTA TEIXEIRA        VITORIA CORua OSWALDO CRUZ                                  JARDIM VELOSO       OSASCO              SP06144310                              D1109854980        14021997FSOSASCO              SP000000200395SP00101001N434173548971372787178300000000458310244      SSP  SP0101001                                                                                                            0000000000000000000000000000000000010            00000000000000000000000000000000000000000000    00000000000  0000000000000000000000000000000000 00000                 00000000000000SSNS000000N0               00000                     000000  1000000000000000 00000000000000000000000000000000000000000 000000 N0000000000000000000000000000000000000000000000000000000000000000000000000000000000000000000000000 000000000000000000000000000000000000000000000000
FI001000031000000920000000000NAYARA ALMEIDA LIMA           NAYARA ALMRua MICHEL ANGELO PRUNETTI                        JARDIM ICARAI       SAO PAULO           SP04844260                              D1100597189        27051998MSJANDIRA             SP000000500414SP00101001N458637138281352616466400000000502324351      SSP  SP0101001                                                                                                            0000000000000000000000000000000000010            00000000000000000000000000000000000000000000    00000000000  0000000000000000000000000000000000 00000                 00000000000000SSNS000000N0               00000                     000000  1000000000000000 00000000000000000000000000000000000000000 000000 N0000000000000000000000000000000000000000000000000000000000000000000000000000000000000000000000000 000000000000000000000000000000000000000000000000
FI001000032000000920000000000DANIELLY NEVES SOUZA          DANIELLY NAvenida DOUTOR GUILHERME DUMON                    JARDIM LONDRINA     SAO PAULO           SP05640002                              D1109799682        27041998FSSAO PAULO           SP000000100414SP00101001N460579168081530333201600000000393842551      SSP  SP0101001                                                                                                            0000000000000000000000000000000000010            00000000000000000000000000000000000000000000    00000000000  0000000000000000000000000000000000 00000                 00000000000000SSNS000000N0               00000                     000000  1000000000000000 00000000000000000000000000000000000000000 000000 N0000000000000000000000000000000000000000000000000000000000000000000000000000000000000000000000000 000000000000000000000000000000000000000000000000
FI001000033000011010000000000ERICK MARTINS VERONA          ERICK MARTRua MAXIMINO SOLIMAN                              JARDIM JULIANA      FERRAZ DE VASCONCELOSP08502420                              D1100467815        28021998MSSAO PAULO           SP000000800415SP00101001N452869428060000000000000000000373151251      SSP  SP0101001                                                                                                            0000000000000000000000000000000000010            00000000000000000000000000000000000000000000    00000000000  0000000000000000000000000000000000 00000                 00000000000000SSNS000000N0               00000                     000000  1000000000000000 00000000000000000000000000000000000000000 000000 N0000000000000000000000000000000000000000000000000000000000000000000000000000000000000000000000000 000000000000000000000000000000000000000000000000
FI001000034000011010000000000JENIFER ALVES BRITO           JENIFER ALRua MAXIMINO SOLIMAN                              JARDIM JULIANA      FERRAZ DE VASCONCELOSP08502420                              D1100467872        07081997FSFERRAZ DE VASCONCELOSP000000500416SP00101001N471257288470000000000000000000360072008      SSP  SP0101001                                                                                                            0000000000000000000000000000000000010            00000000000000000000000000000000000000000000    00000000000  0000000000000000000000000000000000 00000                 00000000000000SSNS000000N0               00000                     000000  1000000000000000 00000000000000000000000000000000000000000 000000 N0000000000000000000000000000000000000000000000000000000000000000000000000000000000000000000000000 000000000000000000000000000000000000000000000000
FI001000035000011010000000000MICHELE SILVA BRITO           MICHELE SIRua CABO GUIDO BONI                               JARDIM JULIANA      FERRAZ DE VASCONCELOSP08502430                              D1100467639        28071997FSFERRAZ DE VASCONCELOSP000000100407SP00101001N473293298350000000000000000000388233369      SSP  SP0101001                                                                                                            0000000000000000000000000000000000010            00000000000000000000000000000000000000000000    00000000000  0000000000000000000000000000000000 00000                 00000000000000SSNS000000N0               00000                     000000  1000000000000000 00000000000000000000000000000000000000000 000000 N0000000000000000000000000000000000000000000000000000000000000000000000000000000000000000000000000 000000000000000000000000000000000000000000000000
FI001000036000011010000000000NATAMI DOS SANTOS TAVARES     NATAMI DOSRua ORLANDO PELLICCI                              CIDADE LIDER        SAO PAULO           SP08280650                              D1100274698        10041998FSSANTO ANDRE         SP000000200413SP00101001N470977038730000000000000000000524694412      SSP  SP0101001                                                                                                            0000000000000000000000000000000000010            00000000000000000000000000000000000000000000    00000000000  0000000000000000000000000000000000 00000                 00000000000000SSNS000000N0               00000                     000000  1000000000000000 00000000000000000000000000000000000000000 000000 N0000000000000000000000000000000000000000000000000000000000000000000000000000000000000000000000000 000000000000000000000000000000000000000000000000
FI001000037000011010000000000EVELYN CAMPOS BRITO           EVELYN CAMRua PEDRA LAVRADA                                 PARQUE CISPER       SAO PAULO           SP03818000                              D1100254733        02031998FSSAO PAULO           SP000000900413SP00101001N479676908000000000000000000000542927421      SSP  SP0101001                                                                                                            0000000000000000000000000000000000010            00000000000000000000000000000000000000000000    00000000000  0000000000000000000000000000000000 00000                 00000000000000SSNS000000N0               00000                     000000  1000000000000000 00000000000000000000000000000000000000000 000000 N0000000000000000000000000000000000000000000000000000000000000000000000000000000000000000000000000 000000000000000000000000000000000000000000000000
FI001000038000011010000000000RODRIGO DO CARMO PEDROZO      RODRIGO DOAvenida PAULO NUNES FELIX                         PARQUE SAO RAFAEL   SAO PAULO           SP08320370                              D0000000000        09091998MSSAO PAULO           SP000000400413SP00101001N405660188700000000000000000000382936388      SSP  SP0101001                                                                                                            0000000000000000000000000000000000010            00000000000000000000000000000000000000000000    00000000000  0000000000000000000000000000000000 00000                 00000000000000SSNS000000N0               00000                     000000  1000000000000000 00000000000000000000000000000000000000000 000000 N0000000000000000000000000000000000000000000000000000000000000000000000000000000000000000000000000 000000000000000000000000000000000000000000000000
FI001000039000011010000000000RODRIGO FERREIRA DOS SANTOS   RODRIGO FERua SOTER DE ARAUJO                               CIDADE TIRADENTES   SAO PAULO           SP08470460                              D1100296132        01091997MSGUARULHOS           SP000000400413SP00101001N482568058540000000000000000000377856344      SSP  SP0101001                                                                                                            0000000000000000000000000000000000010            00000000000000000000000000000000000000000000    00000000000  0000000000000000000000000000000000 00000                 00000000000000SSNS000000N0               00000                     000000  1000000000000000 00000000000000000000000000000000000000000 000000 N0000000000000000000000000000000000000000000000000000000000000000000000000000000000000000000000000 000000000000000000000000000000000000000000000000
FI001000040000011010000000000RICHARD NONATO RODRIGUES      RICHARD NORua ENGENHEIRO FERREIRA                           VILA NHOCUNE        SAO PAULO           SP03562010                              D1100356450        10041997MSS PAULO             SP000000000402SP00101001N43689665892000000000000000000038609102X      SSP  SP0101001                                                                                                            0000000000000000000000000000000000010            00000000000000000000000000000000000000000000    00000000000  0000000000000000000000000000000000 00000                 00000000000000SSNS000000N0               00000                     000000  1000000000000000 00000000000000000000000000000000000000000 000000 N0000000000000000000000000000000000000000000000000000000000000000000000000000000000000000000000000 000000000000000000000000000000000000000000000000
FI001000041000011010000000000RAFAEL CARDOSO DA SILVA       RAFAEL CARRua ALTANEIRA                                     PARQUE CISPER       SAO PAULO           SP03819000                              D1100355405        17101999MSSAO PAULO           SP000000000434SP00101001N363493378080000000000000000000392431531      SSP  SP0101001                                                                                                            0000000000000000000000000000000000010            00000000000000000000000000000000000000000000    00000000000  0000000000000000000000000000000000 00000                 00000000000000SSNS000000N0               00000                     000000  1000000000000000 00000000000000000000000000000000000000000 000000 N0000000000000000000000000000000000000000000000000000000000000000000000000000000000000000000000000 000000000000000000000000000000000000000000000000
FI001000042000011010000000000LUCAS PEREIRA SANDIM          LUCAS PERERua GONCALO TEMUDO                                CIDADE LIDER        SAO PAULO           SP82855280                              D1109417811        21101998MSSAO PAULO           SP000000500413SP00101001N496737438780000000000000000000503929530      SSP  SP0101001                                                                                                            0000000000000000000000000000000000010            00000000000000000000000000000000000000000000    00000000000  0000000000000000000000000000000000 00000                 00000000000000SSNS000000N0               00000                     000000  1000000000000000 00000000000000000000000000000000000000000 000000 N0000000000000000000000000000000000000000000000000000000000000000000000000000000000000000000000000 000000000000000000000000000000000000000000000000
FI001000043000011010000000000LEONARDO TRINDADE DE AZEVEDO  LEONARDO TRua VALENCA DO MINHO                              JARDIM BRASILIA     SAO PAULO           SP03583040                              D1100274113        24091997MSSAO PAULO           SP000000000413SP00101001N47235538864000000000000000000052758485X      SSP  SP0101001                                                                                                            0000000000000000000000000000000000010            00000000000000000000000000000000000000000000    00000000000  0000000000000000000000000000000000 00000                 00000000000000SSNS000000N0               00000                     000000  1000000000000000 00000000000000000000000000000000000000000 000000 N0000000000000000000000000000000000000000000000000000000000000000000000000000000000000000000000000 000000000000000000000000000000000000000000000000
FI001000044000006680000000000JOSE MARCOS DA SILVA SOUSA    JOSE MARCORua MARIA BALADES CORREA                          JARDIM LUSO         SAO PAULO           SP04421020                              D1100562153        04031998MSSAO PAULO           SP000000600410SP00101001N471518518041626302811500000000506937100      SSP  SP0101001                                                                                                            0000000000000000000000000000000000010            00000000000000000000000000000000000000000000    00000000000  0000000000000000000000000000000000 00000                 00000000000000SSNS000000N0               00000                     000000  1000000000000000 00000000000000000000000000000000000000000 000000 N0000000000000000000000000000000000000000000000000000000000000000000000000000000000000000000000000 000000000000000000000000000000000000000000000000
FI001000045000009190000000000GUSTAVO RIBEIRO DA SILVA      GUSTAVO RIRua ITAMAR FRANCO                                 CIDADE ANTONIO ESTEVSAO PAULO           SP08223356                              D1100204771        25111997MSSAO PAULO           SP000000400413SP00101001N3922886582212581756960000000001432411926     SSP  SP0101001                                                                                                            0000000000000000000000000000000000010            00000000000000000000000000000000000000000000    00000000000  0000000000000000000000000000000000 00000                 00000000000000SSNS000000N0               00000                     000000  1000000000000000 00000000000000000000000000000000000000000 000000 N0000000000000000000000000000000000000000000000000000000000000000000000000000000000000000000000000 000000000000000000000000000000000000000000000000
FI001000046000009190000000000LUCAS SILVA NASCIMENTO        LUCAS SILVRua RUBENS FRAGA DE TOLEDO ARR                    ENGENHEIRO GOULART  SAO PAULO           SP03726000                              D1100262328        13061996MSSAO PAULO           SP000000500393SP00101001N426679668482015297073200000000369743817      SSP  SP0101001                                                                                                            0000000000000000000000000000000000010            00000000000000000000000000000000000000000000    00000000000  0000000000000000000000000000000000 00000                 00000000000000SSNS000000N0               00000                     000000  1000000000000000 00000000000000000000000000000000000000000 000000 N0000000000000000000000000000000000000000000000000000000000000000000000000000000000000000000000000 000000000000000000000000000000000000000000000000
FI001000047000009190000000000BRUNO ANDERSON DA SILVA       BRUNO ANDERua AMERICO ALVES                                 JARDIM CATARINA     SAO PAULO           SP03910080                              D1100221136        06032000MSSAO PAULO           SP000000100426SP00101001N49354975801137277859410000000055199115X      SSP  SP0101001                                                                                                            0000000000000000000000000000000000010            00000000000000000000000000000000000000000000    00000000000  0000000000000000000000000000000000 00000                 00000000000000SSNS000000N0               00000                     000000  1000000000000000 00000000000000000000000000000000000000000 000000 N0000000000000000000000000000000000000000000000000000000000000000000000000000000000000000000000000 000000000000000000000000000000000000000000000000
FI001000048000009190000000000ALEXANDRE GUILHERME AMORIM CARALEXANDRE Rua EUCLIDES ANTONIO DE SOUZA                     JARDIM DAS ROSAS    SAO PAULO           SP03909150                              D1100272107        16071998MSSAO PAULO           SP000000000413SP00101001N48484939863142476823810000000055596260X      SSP  SP0101001                                                                                                            0000000000000000000000000000000000010            00000000000000000000000000000000000000000000    00000000000  0000000000000000000000000000000000 00000                 00000000000000SSNS000000N0               00000                     000000  1000000000000000 00000000000000000000000000000000000000000 000000 N0000000000000000000000000000000000000000000000000000000000000000000000000000000000000000000000000 000000000000000000000000000000000000000000000000
FI001000049000009890000000000FRANCISCO NEUMAR GOMES OLIVEIRFRANCISCO Rua ANTONIO FRANCISCO LISBOA                      PARQUE REAL         DIADEMA             SP09999470                              D1100262971        26111996MSIRACEMA             SP000000900410SP00101001N451228938020000000000000000000391939531      SSP  SP0101001                                                                                                            0000000000000000000000000000000000010            00000000000000000000000000000000000000000000    00000000000  0000000000000000000000000000000000 00000                 00000000000000SSNS000000N0               00000                     000000  1000000000000000 00000000000000000000000000000000000000000 000000 N0000000000000000000000000000000000000000000000000000000000000000000000000000000000000000000000000 000000000000000000000000000000000000000000000000
FI001000050000009890000000000MATHEUS DA SILVA ELER DE OLIVEMATHEUS DARua BARAO DE URUGUAIANA                           JARDIM RUYCE        DIADEMA             SP09961650                              D1100406645        29101996MSSAO PAULO           SP000000100396SP00101001N433787528070000000000000000000503625632      SSP  SP0101001                                                                                                            0000000000000000000000000000000000010            00000000000000000000000000000000000000000000    00000000000  0000000000000000000000000000000000 00000                 00000000000000SSNS000000N0               00000                     000000  1000000000000000 00000000000000000000000000000000000000000 000000 N0000000000000000000000000000000000000000000000000000000000000000000000000000000000000000000000000 000000000000000000000000000000000000000000000000
FI001000051000009890000000000GABRIEL VIANA DE OLIVEIRA     GABRIEL VIRua RAPHAEL MOISES G RODRIGUES                    VILA SANTA MARIA    DIADEMA             SP09980230                              D1100405652        14011997MSSAO PAULO           SP000000300412SP00101001N448452968880000000000000000000383636711      SSP  SP0101001                                                                                                            0000000000000000000000000000000000010            00000000000000000000000000000000000000000000    00000000000  0000000000000000000000000000000000 00000                 00000000000000SSNS000000N0               00000                     000000  1000000000000000 00000000000000000000000000000000000000000 000000 N0000000000000000000000000000000000000000000000000000000000000000000000000000000000000000000000000 000000000000000000000000000000000000000000000000
FI001000052000010670000000000AMANDA FEITOSA DOS SANTOS     AMANDA FEIRua VIRGINIA JOANA DA SILVA                       JARDIM CONCEIÇAO    OSASCO              SP06145129                              D1100359243        13081995FSOSASCO              SP000000000395SP00101001N452330118240000000000000000000441484268      SSP  SP0101001                                                                                                            0000000000000000000000000000000000010            00000000000000000000000000000000000000000000    00000000000  0000000000000000000000000000000000 00000                 00000000000000SSNS000000N0               00000                     000000  1000000000000000 00000000000000000000000000000000000000000 000000 N0000000000000000000000000000000000000000000000000000000000000000000000000000000000000000000000000 000000000000000000000000000000000000000000000000
FI001000053000008200000000000AFONSO OLIVEIRA DE SOUZA      AFONSO OLIAlameda MIGUEL PRESTES FERRAZ                     PARQUE PINHEIROS    TABOAO DA SERRA     SP06766135                              D1100413788        25011997MSTABOAO DA SERRA     SP000000900401SP00101001N470997428410000000000000000000397425983      SSP  SP0101001                                                                                                            0000000000000000000000000000000000010            00000000000000000000000000000000000000000000    00000000000  0000000000000000000000000000000000 00000                 00000000000000SSNS000000N0               00000                     000000  1000000000000000 00000000000000000000000000000000000000000 000000 N0000000000000000000000000000000000000000000000000000000000000000000000000000000000000000000000000 000000000000000000000000000000000000000000000000
FI001000054000008200000000000JOSUE DE SOUZA LOPES CARA     JOSUE DE SRua ANTONIO ANTUNES                               VILA PIRAJUSSARA    SAO PAULO           SP05786020                              D1100478159        05081993MSDIADEMA             SP000000800368SP00101001N436708218050000000000000000000495481579      SSP  SP0101001                                                                                                            0000000000000000000000000000000000010            00000000000000000000000000000000000000000000    00000000000  0000000000000000000000000000000000 00000                 00000000000000SSNS000000N0               00000                     000000  1000000000000000 00000000000000000000000000000000000000000 000000 N0000000000000000000000000000000000000000000000000000000000000000000000000000000000000000000000000 000000000000000000000000000000000000000000000000
FI001000055000008450000000000GEOVANNA SILVA DE SIQUEIRA NUNGEOVANNA SAvenida DOUTOR JOSE ARTUR NOVA                    PARQUE PAULISTANO   SAO PAULO           SP08090000                              D1100258161        22101998FSSAO PAULO           SP000000300398SP00101001N468647718222043490633000000000384634990      SSP  SP0101001                                                                                                            0000000000000000000000000000000000010            00000000000000000000000000000000000000000000    00000000000  0000000000000000000000000000000000 00000                 00000000000000SSNS000000N0               00000                     000000  1000000000000000 00000000000000000000000000000000000000000 000000 N0000000000000000000000000000000000000000000000000000000000000000000000000000000000000000000000000 000000000000000000000000000000000000000000000000
FI001000056000008450000000000NATHALIA ARAUJO DE MELLO      NATHALIA ARua PEDRO VIVIANI                                 JARDIM ALTO PEDROSO SAO PAULO           SP08011650                              D1100388156        09021997FSSAO PAULO           SP000000000426SP00101001N443054218011585484534600000000553527010      SSP  SP0101001                                                                                                            0000000000000000000000000000000000010            00000000000000000000000000000000000000000000    00000000000  0000000000000000000000000000000000 00000                 00000000000000SSNS000000N0               00000                     000000  1000000000000000 00000000000000000000000000000000000000000 000000 N0000000000000000000000000000000000000000000000000000000000000000000000000000000000000000000000000 000000000000000000000000000000000000000000000000
FI001000057000008290000000000ATILA MEDEIROS DE LIRA        ATILA MEDERua JOSE JOAQUIM DE MAIA                          JARDIM NICE         SAO PAULO           SP03905060                              D1100272549        04021998MSSAO PAULO           SP000000900365SP00101001N475854958380000000000000000000541471892      SSP  SP0101001                                                                                                            0000000000000000000000000000000000010            00000000000000000000000000000000000000000000    00000000000  0000000000000000000000000000000000 00000                 00000000000000SSNS000000N0               00000                     000000  1000000000000000 00000000000000000000000000000000000000000 000000 N0000000000000000000000000000000000000000000000000000000000000000000000000000000000000000000000000 000000000000000000000000000000000000000000000000
FI001000058000008290000000000JEFERSON ANTONIO DOS SANTOS JUJEFERSON ARua PEDRO RABELO                                  JARDIM NOVO CARRAO  SAO PAULO           SP03908000                              D1100272473        27071998MSSAO PAULO           SP000000900403SP00101001N359782328900000000000000000000386066802      SSP  SP0101001                                                                                                            0000000000000000000000000000000000010            00000000000000000000000000000000000000000000    00000000000  0000000000000000000000000000000000 00000                 00000000000000SSNS000000N0               00000                     000000  1000000000000000 00000000000000000000000000000000000000000 000000 N0000000000000000000000000000000000000000000000000000000000000000000000000000000000000000000000000 000000000000000000000000000000000000000000000000
FI001000059000006970000000000GUILHERME PIRES CERDEIRA GUERRGUILHERME Rua ANTONIO DO CAMPO                              PEDREIRA            SAO PAULO           SP04459000                              D1100561238        26021995MSSAO PAULO           SP000000700401SP00101001N448034388111369124958100000000486492734      SSP  SP0101001                                                                                                            0000000000000000000000000000000000010            00000000000000000000000000000000000000000000    00000000000  0000000000000000000000000000000000 00000                 00000000000000SSNS000000N0               00000                     000000  1000000000000000 00000000000000000000000000000000000000000 000000 N0000000000000000000000000000000000000000000000000000000000000000000000000000000000000000000000000 000000000000000000000000000000000000000000000000
FI001000060000006970000000000DANIEL MAGRO                  DANIEL MAGRua CORNELIO DOPPER                               PARQUE NOVO GRAJAU  SAO PAULO           SP04847000                              D1100592941        29081994MSSAO PAULO           SP000000400381SP00101001N432810098082041614607900000000426308992      SSP  SP0101001                                                                                                            0000000000000000000000000000000000010            00000000000000000000000000000000000000000000    00000000000  0000000000000000000000000000000000 00000                 00000000000000SSNS000000N0               00000                     000000  1000000000000000 00000000000000000000000000000000000000000 000000 N0000000000000000000000000000000000000000000000000000000000000000000000000000000000000000000000000 000000000000000000000000000000000000000000000000
FI001000061000006970000000000LUCAS SOARES GABIAN           LUCAS SOARRua CASTELLAMMARE                                 CHACARA SANTA MARIA SAO PAULO           SP05879410                              D1100587437        27091996MSDIADEMA             SP000000400414SP00101001N416624798081315480555800000000382635541      SSP  SP0101001                                                                                                            0000000000000000000000000000000000010            00000000000000000000000000000000000000000000    00000000000  0000000000000000000000000000000000 00000                 00000000000000SSNS000000N0               00000                     000000  1000000000000000 00000000000000000000000000000000000000000 000000 N0000000000000000000000000000000000000000000000000000000000000000000000000000000000000000000000000 000000000000000000000000000000000000000000000000
FI001000062000006970000000000THIAGO CAVALCANTE COSTA       THIAGO CAVRua ZACARIAS DIAS CORTES                          PARQUE REGINA       SAO PAULO           SP05775260                              D1100551308        03011995MSSAO PAULO           SP000000700380SP00101001N431573908132107172871900000000428755860      SSP  SP0101001                                                                                                            0000000000000000000000000000000000010            00000000000000000000000000000000000000000000    00000000000  0000000000000000000000000000000000 00000                 00000000000000SSNS000000N0               00000                     000000  1000000000000000 00000000000000000000000000000000000000000 000000 N0000000000000000000000000000000000000000000000000000000000000000000000000000000000000000000000000 000000000000000000000000000000000000000000000000
FI001000063000002780000000000MAYKON COSTA SILVA            MAYKON COSRua ROBERTO CAMPOS RODRIGUES                      JARDIM VISTA LINDA  SAO PAULO           SP05798300                              D1100341880        13031999MSSAO PAULO           SP000524700414SP00101001N439692648042107251239600000000369635711      SSP  SP0101001                                                                                                            0000000000000000000000000000000000010            00000000000000000000000000000000000000000000    00000000000  0000000000000000000000000000000000 00000                 00000000000000SSNS000000N0               00000                     000000  1000000000000000 00000000000000000000000000000000000000000 000000 N0000000000000000000000000000000000000000000000000000000000000000000000000000000000000000000000000 000000000000000000000000000000000000000000000000
FI001000064000002780000000000MATHEUS CARRETA LUCILIO       MATHEUS CARua VERISSIMO DE SOUZA                            VILA CONSTANCIA     SAO PAULO           SP04658070                              D1100597905        12051999MSSAO PAULO           SP000000700417SP00101001N435116908701369618008300000000371319171      SSP  SP0101001                                                                                                            0000000000000000000000000000000000010            00000000000000000000000000000000000000000000    00000000000  0000000000000000000000000000000000 00000                 00000000000000SSNS000000N0               00000                     000000  1000000000000000 00000000000000000000000000000000000000000 000000 N0000000000000000000000000000000000000000000000000000000000000000000000000000000000000000000000000 000000000000000000000000000000000000000000000000
FI001000065000002780000000000ELTON LUIZ HONORATO JUNIOR    ELTON LUIZRua CAETANO DIAS PEREIRA                          JARDIM BRASILIA     SAO PAULO           SP05845280                              D1100581252        21061997MSSAO PAULO           SP000000300415SP00101001N458316738552097802112000000000391126416      SSP  SP0101001                                                                                                            0000000000000000000000000000000000010            00000000000000000000000000000000000000000000    00000000000  0000000000000000000000000000000000 00000                 00000000000000SSNS000000N0               00000                     000000  1000000000000000 00000000000000000000000000000000000000000 000000 N0000000000000000000000000000000000000000000000000000000000000000000000000000000000000000000000000 000000000000000000000000000000000000000000000000
FI001000066000002780000000000WELLINGTON SILVA MIRANDA      WELLINGTONRua VITALINA GRASSMAN                             JARDIM MIRANTE      SAO PAULO           SP05801110                              D1100958424        06111998MSSAO PAULO           SP000000500414SP00101001N481739888461665009299200000000381075631      SSP  SP0101001                                                                                                            0000000000000000000000000000000000010            00000000000000000000000000000000000000000000    00000000000  0000000000000000000000000000000000 00000                 00000000000000SSNS000000N0               00000                     000000  1000000000000000 00000000000000000000000000000000000000000 000000 N0000000000000000000000000000000000000000000000000000000000000000000000000000000000000000000000000 000000000000000000000000000000000000000000000000
FI001000067000002780000000000CAIQUE NOGUEIRA DIAS          CAIQUE NOGRua CANDIDA RAMOS                                 JARDIM REIMBERG     SAO PAULO           SP04845110                              D1100592552        16081997MSSAO PAULO           SP000000000414SP00101001N399419418071544629457600000000371625154      SSP  SP0101001                                                                                                            0000000000000000000000000000000000010            00000000000000000000000000000000000000000000    00000000000  0000000000000000000000000000000000 00000                 00000000000000SSNS000000N0               00000                     000000  1000000000000000 00000000000000000000000000000000000000000 000000 N0000000000000000000000000000000000000000000000000000000000000000000000000000000000000000000000000 000000000000000000000000000000000000000000000000
FI001000068000002780000000000PAULO RICARDO CARDOSO P LIMA  PAULO RICARua LUIZ LOPES COELHO                             JARDIM CENTENARIO   SAO PAULO           SP05365140                              D1109589329        19071999MSSAO PAULO           SP000000100414SP00101001N473710968192097416780500000000384722948      SSP  SP0101001                                                                                                            0000000000000000000000000000000000010            00000000000000000000000000000000000000000000    00000000000  0000000000000000000000000000000000 00000                 00000000000000SSNS000000N0               00000                     000000  1000000000000000 00000000000000000000000000000000000000000 000000 N0000000000000000000000000000000000000000000000000000000000000000000000000000000000000000000000000 000000000000000000000000000000000000000000000000
FI001000069000002780000000000DYEFERSON DOS SANTOS BRAGA    DYEFERSON Rua JOSEPHINA GIANINNI ELIAS-D                    ELDORADO            SAO PAULO           SP04476000                              D1109571173        21091997MSPAULO AFONSO        SP000000400406SP00101001N48053436803160338731230000000039807172X      SSP  SP0101001                                                                                                            0000000000000000000000000000000000010            00000000000000000000000000000000000000000000    00000000000  0000000000000000000000000000000000 00000                 00000000000000SSNS000000N0               00000                     000000  1000000000000000 00000000000000000000000000000000000000000 000000 N0000000000000000000000000000000000000000000000000000000000000000000000000000000000000000000000000 000000000000000000000000000000000000000000000000
FI001000070000002780000000000STEFANI ZAINE DA SILVA        STEFANI ZARua SAMUEL COOPER                                 JARDIM MODELO       SAO PAULO           SP05867440                              D1100587216        11041995FSSAO PAULO           SP000000200414SP00101001N426610298421322641253000000000476465692      SSP  SP0101001                                                                                                            0000000000000000000000000000000000010            00000000000000000000000000000000000000000000    00000000000  0000000000000000000000000000000000 00000                 00000000000000SSNS000000N0               00000                     000000  1000000000000000 00000000000000000000000000000000000000000 000000 N0000000000000000000000000000000000000000000000000000000000000000000000000000000000000000000000000 000000000000000000000000000000000000000000000000
FI001000071000002780000000000FELIPE SOUZA GONZAGA          FELIPE SOURua CHARLES ROSEN                                 JARDIM GAIVOTAS     SAO PAULO           SP04849301                              D1100593235        24081997MSSAO PAULO           SP000000600401SP00101001N465716848701629906399900000000506092768      SSP  SP0101001                                                                                                            0000000000000000000000000000000000010            00000000000000000000000000000000000000000000    00000000000  0000000000000000000000000000000000 00000                 00000000000000SSNS000000N0               00000                     000000  1000000000000000 00000000000000000000000000000000000000000 000000 N0000000000000000000000000000000000000000000000000000000000000000000000000000000000000000000000000 000000000000000000000000000000000000000000000000
FI001000072000002780000000000CHRISTIAN ALVES DE ASSIS      CHRISTIAN Rua MANOEL LEAL                                   JARDIM ANGELA       SAO PAULO           SP04835170                              D1100592502        25011997MSSAO PAULO           SP000000700401SP00101001N466793388751644122850600000000530090429      SSP  SP0101001                                                                                                            0000000000000000000000000000000000010            00000000000000000000000000000000000000000000    00000000000  0000000000000000000000000000000000 00000                 00000000000000SSNS000000N0               00000                     000000  1000000000000000 00000000000000000000000000000000000000000 000000 N0000000000000000000000000000000000000000000000000000000000000000000000000000000000000000000000000 000000000000000000000000000000000000000000000000
FI001000073000002780000000000JULIANA DOS SANTOS MEDEIROS DAJULIANA DORua RUDOLF LOTZE                                  PARAISOPOLIS        SAO PAULO           SP05663000                              D1100377135        14051997FSSAO PAULO           SP000000700414SP00101001N390500878501629356772300000000393234277      SSP  SP0101001                                                                                                            0000000000000000000000000000000000010            00000000000000000000000000000000000000000000    00000000000  0000000000000000000000000000000000 00000                 00000000000000SSNS000000N0               00000                     000000  1000000000000000 00000000000000000000000000000000000000000 000000 N0000000000000000000000000000000000000000000000000000000000000000000000000000000000000000000000000 000000000000000000000000000000000000000000000000
FI001000074000002780000000000BRUNO PINTO CUNHA             BRUNO PINTRua CANUTO LUIZ DO NASCIMENTO                     JARDIM CAPELINHA    SAO PAULO           SP05850140                              D1100585102        28081998MSPERUIBE             SP000000900414SP00101001N477332898312014535353700000000507575398      SSP  SP0101001                                                                                                            0000000000000000000000000000000000010            00000000000000000000000000000000000000000000    00000000000  0000000000000000000000000000000000 00000                 00000000000000SSNS000000N0               00000                     000000  1000000000000000 00000000000000000000000000000000000000000 000000 N0000000000000000000000000000000000000000000000000000000000000000000000000000000000000000000000000 000000000000000000000000000000000000000000000000
FI001000075000002780000000000RICK SANTOS SILVA             RICK SANTORua ANCARA                                        VILA DO SOL         SAO PAULO           SP04962160                              D1100551737        09081998MSEUCLIDES DA CUNHA   SP000000800401SP00101001N469030788192009421566300000000371355564      SSP  SP0101001                                                                                                            0000000000000000000000000000000000010            00000000000000000000000000000000000000000000    00000000000  0000000000000000000000000000000000 00000                 00000000000000SSNS000000N0               00000                     000000  1000000000000000 00000000000000000000000000000000000000000 000000 N0000000000000000000000000000000000000000000000000000000000000000000000000000000000000000000000000 000000000000000000000000000000000000000000000000
FI001000076000002780000000000FERNANDO DAMIAO FRANCKLIN MAIAFERNANDO DRua TIBURCIO RODRIGUES                            PARQUE COLONIAL     SAO PAULO           SP04821160                              D1100566116        31011997MSSAO PAULO           SP000000400414SP00101001N416100698541309547110500000000380198642      SSP  SP0101001                                                                                                            0000000000000000000000000000000000010            00000000000000000000000000000000000000000000    00000000000  0000000000000000000000000000000000 00000                 00000000000000SSNS000000N0               00000                     000000  1000000000000000 00000000000000000000000000000000000000000 000000 N0000000000000000000000000000000000000000000000000000000000000000000000000000000000000000000000000 000000000000000000000000000000000000000000000000
FI001000077000002780000000000VITOR HUGO PEREIRA BORGES  DOSVITOR HUGORua NEREU RAMOS                                   VILA MAFALDA        TABOAO DA SERRA     SP06783350                              D1100413791        19061998MSTABOA DA SERRA      SP000000500414SP00101001N474738538051656627487200000000537892424      SSP  SP0101001                                                                                                            0000000000000000000000000000000000010            00000000000000000000000000000000000000000000    00000000000  0000000000000000000000000000000000 00000                 00000000000000SSNS000000N0               00000                     000000  1000000000000000 00000000000000000000000000000000000000000 000000 N0000000000000000000000000000000000000000000000000000000000000000000000000000000000000000000000000 000000000000000000000000000000000000000000000000
FI001000078000006980000000000GUILHERME DORTA XAVIER        GUILHERME Rua CUNHA DE CARVALHO                             PARQUE SAO RAFAEL   SAO PAULO           SP08311110                              D1100201266        29041999MSSAO PAULO           SP000000200434SP00101001N496902798660000000000000000000555129494      SSP  SP0101001                                                                                                            0000000000000000000000000000000000010            00000000000000000000000000000000000000000000    00000000000  0000000000000000000000000000000000 00000                 00000000000000SSNS000000N0               00000                     000000  1000000000000000 00000000000000000000000000000000000000000 000000 N0000000000000000000000000000000000000000000000000000000000000000000000000000000000000000000000000 000000000000000000000000000000000000000000000000
FI001000079000006980000000000LARISSA DOS SANTOS VICTORELLI LARISSA DORua JULIANO CARTARI                               PARQUE BANCARIO     SAO PAULO           SP03923290                              D1100272183        28021998FSSAO PAULO           SP000000000001SP00101001N46451053880000000000000000000036120551X      SSP  SP0101001                                                                                                            0000000000000000000000000000000000010            00000000000000000000000000000000000000000000    00000000000  0000000000000000000000000000000000 00000                 00000000000000SSNS000000N0               00000                     000000  1000000000000000 00000000000000000000000000000000000000000 000000 N0000000000000000000000000000000000000000000000000000000000000000000000000000000000000000000000000 000000000000000000000000000000000000000000000000
FI001000080000006980000000000NICOLAS SOARES DE ASSIS       NICOLAS SORua FILHAS DO SAGRADO CORACAO                     VILA FORMOSA        SAO PAULO           SP03364000                              D1109679416        21102000MSSAO PAULO           SP000000000414SP00101001N493565458980000000000000000000555546044      SSP  SP0101001                                                                                                            0000000000000000000000000000000000010            00000000000000000000000000000000000000000000    00000000000  0000000000000000000000000000000000 00000                 00000000000000SSNS000000N0               00000                     000000  1000000000000000 00000000000000000000000000000000000000000 000000 N0000000000000000000000000000000000000000000000000000000000000000000000000000000000000000000000000 000000000000000000000000000000000000000000000000
FI001000081000006980000000000RAFAELA DE SOUZA CAMARA       RAFAELA DEAvenida RIACHO DOS MACHADOS                       JARDIM TIETE        SAO PAULO           SP03943010                              D1100201267        13081997FSSAO PAULO           SP000000304228SP00101001N46663510860000000000000000000054137624x      SSP  SP0101001                                                                                                            0000000000000000000000000000000000010            00000000000000000000000000000000000000000000    00000000000  0000000000000000000000000000000000 00000                 00000000000000SSNS000000N0               00000                     000000  1000000000000000 00000000000000000000000000000000000000000 000000 N0000000000000000000000000000000000000000000000000000000000000000000000000000000000000000000000000 000000000000000000000000000000000000000000000000
FI001000082000006980000000000GABRIELA FRATI DE SOUZA PINHEIGABRIELA FAvenida RIACHO DOS MACHADOS                       JARDIM TIETE        SAO PAULO           SP03943010                              D1100201267        12062000FSSAO PAULO           SP000000000434SP00101001N485978618190000000000000000000383821204      SSP  SP0101001                                                                                                            0000000000000000000000000000000000010            00000000000000000000000000000000000000000000    00000000000  0000000000000000000000000000000000 00000                 00000000000000SSNS000000N0               00000                     000000  1000000000000000 00000000000000000000000000000000000000000 000000 N0000000000000000000000000000000000000000000000000000000000000000000000000000000000000000000000000 000000000000000000000000000000000000000000000000
FI001000083000006980000000000LUIZA ARAUJO DOS SANTOS       LUIZA ARAUAvenida ADUTORA DO RIO CLARO                      JARDIM SAPOPEMBA    SAO PAULO           SP03924300                              D1100371384        12121997FSSAO PAULO           SP000000800414SP00101001N466939118620000000000000000000381391942      SSP  SP0101001                                                                                                            0000000000000000000000000000000000010            00000000000000000000000000000000000000000000    00000000000  0000000000000000000000000000000000 00000                 00000000000000SSNS000000N0               00000                     000000  1000000000000000 00000000000000000000000000000000000000000 000000 N0000000000000000000000000000000000000000000000000000000000000000000000000000000000000000000000000 000000000000000000000000000000000000000000000000
FI001000084000006980000000000ALEX HENRIQUE CARNEIRO        ALEX HENRIRua EUGENIA DE GUERIN                             JARDIM SAPOPEMBA    SAO PAULO           SP03929260                              D1109516368        06021999MSSAO PAULO           SP000000200428SP00101001N431144148770000000000000000000394224474      SSP  SP0101001                                                                                                            0000000000000000000000000000000000010            00000000000000000000000000000000000000000000    00000000000  0000000000000000000000000000000000 00000                 00000000000000SSNS000000N0               00000                     000000  1000000000000000 00000000000000000000000000000000000000000 000000 N0000000000000000000000000000000000000000000000000000000000000000000000000000000000000000000000000 000000000000000000000000000000000000000000000000
FI001000085000008060000000000ISAQUE DUTRA DE LIMA          ISAQUE DUTRua RUA PRIMAVERA                                 NARITA GARDEN       VARGEM GRANDE PAULISSP06730000                              D1100455916        23041998MS                    SP000000200422SP00101001N480480938470000000000000000000558456327      SSP  SP0101001                                                                                                            0000000000000000000000000000000000010            00000000000000000000000000000000000000000000    00000000000  0000000000000000000000000000000000 00000                 00000000000000SSNS000000N0               00000                     000000  1000000000000000 00000000000000000000000000000000000000000 000000 N0000000000000000000000000000000000000000000000000000000000000000000000000000000000000000000000000 000000000000000000000000000000000000000000000000
FI001000086000008060000000000MATHEUS SILVA SANTANA         MATHEUS SIRua DOS ENCANADORES                               JARDIM EUROPA       VARGEM GRANDE PAULISSP06730000                              D1100415857        14101997MSSAO PAULO           SP000000400422SP00101001N476287948740000000000000000000542885712      SSP  SP0101001                                                                                                            0000000000000000000000000000000000010            00000000000000000000000000000000000000000000    00000000000  0000000000000000000000000000000000 00000                 00000000000000SSNS000000N0               00000                     000000  1000000000000000 00000000000000000000000000000000000000000 000000 N0000000000000000000000000000000000000000000000000000000000000000000000000000000000000000000000000 000000000000000000000000000000000000000000000000
FI001000087000008060000000000RAFAEL LUIZ PAIVA DE MENDONCA RAFAEL LUIRua RUA JOSÉ FRANCISCO RODRIGU                    MAILASQUI           SAO PAULO           SP18143670                              D1109436338        20052001MSSAO PAULO           SP000000000421SP00101001N443516578390000000000000000000556790534      SSP  SP0101001                                                                                                            0000000000000000000000000000000000010            00000000000000000000000000000000000000000000    00000000000  0000000000000000000000000000000000 00000                 00000000000000SSNS000000N0               00000                     000000  1000000000000000 00000000000000000000000000000000000000000 000000 N0000000000000000000000000000000000000000000000000000000000000000000000000000000000000000000000000 000000000000000000000000000000000000000000000000
FI001000088000005050000000000BRENDA PALOMA SILVA DE CARVALHBRENDA PALRua DOUTOR JUVENAL HUDSON FERR                    JARDIM MYRNA        SAO PAULO           SP04856140                              D1100552766        28041996FSS PAULO             SP000000200401SP00101001N442426718061611450688000000000520203872      SSP  SP0101001                                                                                                            0000000000000000000000000000000000010            00000000000000000000000000000000000000000000    00000000000  0000000000000000000000000000000000 00000                 00000000000000SSNS000000N0               00000                     000000  1000000000000000 00000000000000000000000000000000000000000 000000 N0000000000000000000000000000000000000000000000000000000000000000000000000000000000000000000000000 000000000000000000000000000000000000000000000000
FI001000089000005050000000000JULLY MACEDO SILVA            JULLY MACERua PONTES GESTAL                                 CONJ. HABIT. BRIGADESAO PAULO           SP04840650                              D1100593289        27031998FSSAO PAULO           SP000000600414SP00101001N460779128832106895084800000000533103782      SSP  SP0101001                                                                                                            0000000000000000000000000000000000010            00000000000000000000000000000000000000000000    00000000000  0000000000000000000000000000000000 00000                 00000000000000SSNS000000N0               00000                     000000  1000000000000000 00000000000000000000000000000000000000000 000000 N0000000000000000000000000000000000000000000000000000000000000000000000000000000000000000000000000 000000000000000000000000000000000000000000000000
FI001000090000011520000000000ALEF PEREIRA LOPES ROCHA      ALEF PEREIRua UNIDOS VENCEREMOS                             CONJ. HABIT. JARDIM SAO PAULO           SP05885500                              D1100582446        02031998MSSAO PAULO           SP000000500408SP00101001N44781894801000000000000000000050672606X      SSP  SP0101001                                                                                                            0000000000000000000000000000000000010            00000000000000000000000000000000000000000000    00000000000  0000000000000000000000000000000000 00000                 00000000000000SSNS000000N0               00000                     000000  1000000000000000 00000000000000000000000000000000000000000 000000 N0000000000000000000000000000000000000000000000000000000000000000000000000000000000000000000000000 000000000000000000000000000000000000000000000000
FI001000091000011520000000000DOUGLAS CARLOS SILVA BERNARDINDOUGLAS CARua TRIBO DOS ACRAS                               JARDIM DOM JOSE     SAO PAULO           SP05887520                              D1100582575        25071998MSSAO PAULO           SP000000200432SP00101001N447924278350000000000000000000501003794      SSP  SP0101001                                                                                                            0000000000000000000000000000000000010            00000000000000000000000000000000000000000000    00000000000  0000000000000000000000000000000000 00000                 00000000000000SSNS000000N0               00000                     000000  1000000000000000 00000000000000000000000000000000000000000 000000 N0000000000000000000000000000000000000000000000000000000000000000000000000000000000000000000000000 000000000000000000000000000000000000000000000000
FI001000092000008710000000000STEFANY SAMPAIO DA SILVA      STEFANY SARua AGAMENON PEREIRA DA SILVA                     JARDIM NAKAMURA     SAO PAULO           SP04942020                              D1100583306        22081996FSSAO PAULO           SP000000100414SP00101001N388572898260000000000000000000382770071      SSP  SP0101001                                                                                                            0000000000000000000000000000000000010            00000000000000000000000000000000000000000000    00000000000  0000000000000000000000000000000000 00000                 00000000000000SSNS000000N0               00000                     000000  1000000000000000 00000000000000000000000000000000000000000 000000 N0000000000000000000000000000000000000000000000000000000000000000000000000000000000000000000000000 000000000000000000000000000000000000000000000000
FI001000093000008710000000000ANDERSON LISBOA DA SILVA      ANDERSON LRua ANACREONTE                                    CONJUNTO HABITACIONASAO PAULO           SP04855420                              D1100552853        31051996MSSAO PAULO           SP000000400396SP00101001N444627988210000000000000000000381422379      SSP  SP0101001                                                                                                            0000000000000000000000000000000000010            00000000000000000000000000000000000000000000    00000000000  0000000000000000000000000000000000 00000                 00000000000000SSNS000000N0               00000                     000000  1000000000000000 00000000000000000000000000000000000000000 000000 N0000000000000000000000000000000000000000000000000000000000000000000000000000000000000000000000000 000000000000000000000000000000000000000000000000
FI001000094000008710000000000JULIANA OLIVETTI MAISTRO      JULIANA OLRua MARFIM                                        JARDIM SANTA CRUZ   SAO PAULO           SP04456130                              D1100561197        19041995FSSAO PAULO           SP000000300401SP00101001N437770308050000000000000000000368204248      SSP  SP0101001                                                                                                            0000000000000000000000000000000000010            00000000000000000000000000000000000000000000    00000000000  0000000000000000000000000000000000 00000                 00000000000000SSNS000000N0               00000                     000000  1000000000000000 00000000000000000000000000000000000000000 000000 N0000000000000000000000000000000000000000000000000000000000000000000000000000000000000000000000000 000000000000000000000000000000000000000000000000
FI001000095000008710000000000LARISSA LORRANE SILVA SANTOS  LARISSA LORua IGUARAPE                                      JARDIM SANTA JULIA  ITAPECERICA DA SERRASP06867450                              D1100466928        06121997FSSAO PAULO           SP000000700409SP00101001N472597998890000000000000000000528395075      SSP  SP0101001                                                                                                            0000000000000000000000000000000000010            00000000000000000000000000000000000000000000    00000000000  0000000000000000000000000000000000 00000                 00000000000000SSNS000000N0               00000                     000000  1000000000000000 00000000000000000000000000000000000000000 000000 N0000000000000000000000000000000000000000000000000000000000000000000000000000000000000000000000000 000000000000000000000000000000000000000000000000
FI001000096000001560000000000LUCAS DE SOUZA SILVA          LUCAS DE SRua INACIO DE ALMEIDA ARRUDA                      VILA DA PAZ         SAO PAULO           SP04777050                              D1100593921        24011996MSSAO PAULO           SP000000900368SP00101001N425764088002015270671700000000368701918      SSP  SP0101001                                                                                                            0000000000000000000000000000000000010            00000000000000000000000000000000000000000000    00000000000  0000000000000000000000000000000000 00000                 00000000000000SSNS000000N0               00000                     000000  1000000000000000 00000000000000000000000000000000000000000 000000 N0000000000000000000000000000000000000000000000000000000000000000000000000000000000000000000000000 000000000000000000000000000000000000000000000000
FI001000097000001560000000000JOSE LUIZ LOPES DE OLIVEIRA   JOSE LUIZ Rua LATIF FAKHOURI                                VILA SANTA CATARINA SAO PAULO           SP04367010                              D1100430519        10011997MSS PAULO             SP000000500401SP00101001N440727808042042882482400000000365934719      SSP  SP0101001                                                                                                            0000000000000000000000000000000000010            00000000000000000000000000000000000000000000    00000000000  0000000000000000000000000000000000 00000                 00000000000000SSNS000000N0               00000                     000000  1000000000000000 00000000000000000000000000000000000000000 000000 N0000000000000000000000000000000000000000000000000000000000000000000000000000000000000000000000000 000000000000000000000000000000000000000000000000
FI001000098000001560000000000FELIPE DOS SANTOS SOARES      FELIPE DOSRua GILBERTO FREYRE                               PARQUE RESID. COCAIASAO PAULO           SP04849000                              D1100552860        02091998MSSAO PAULO           SP000000100414SP00101001N446775688471629907146000000000393509977      SSP  SP0101001                                                                                                            0000000000000000000000000000000000010            00000000000000000000000000000000000000000000    00000000000  0000000000000000000000000000000000 00000                 00000000000000SSNS000000N0               00000                     000000  1000000000000000 00000000000000000000000000000000000000000 000000 N0000000000000000000000000000000000000000000000000000000000000000000000000000000000000000000000000 000000000000000000000000000000000000000000000000
FI001000099000010660000000000JULIENY SILVA SANTOS          JULIENY SIRua AFONSO ASTURARO                               BARRO BRANCO II     SAO PAULO           SP08473591                              D1100251667        31071997FSJANAUBA             SP000000900413SP00101001N367318178560000000000000000000381653055      SSP  SP0101001                                                                                                            0000000000000000000000000000000000010            00000000000000000000000000000000000000000000    00000000000  0000000000000000000000000000000000 00000                 00000000000000SSNS000000N0               00000                     000000  1000000000000000 00000000000000000000000000000000000000000 000000 N0000000000000000000000000000000000000000000000000000000000000000000000000000000000000000000000000 000000000000000000000000000000000000000000000000
FI001000100000010650000000000JUCELIA SANTOS MOREIRA        JUCELIA SARua SAO FRANCISCO                                 JARDIM PORTO VELHO  SAO PAULO           SP04853186                              D1100552850        24081996FSJAGUAQUARA          SP000000100414SP00101001N445733858350000000000000000000500233652      SSP  SP0101001                                                                                                            0000000000000000000000000000000000010            00000000000000000000000000000000000000000000    00000000000  0000000000000000000000000000000000 00000                 00000000000000SSNS000000N0               00000                     000000  1000000000000000 00000000000000000000000000000000000000000 000000 N0000000000000000000000000000000000000000000000000000000000000000000000000000000000000000000000000 000000000000000000000000000000000000000000000000
FI001000101000010660000000000BRUNA ROSA VIEIRA DE OLIVEIRA BRUNA ROSARua LAKME                                         JARDIM NASTARI      SAO PAULO           SP04466010                              D1109575835        11031996FSSAO PAULO           SP000000300410SP00101001N47033125810000000000000000000037232728X      SSP  SP0101001                                                                                                            0000000000000000000000000000000000010            00000000000000000000000000000000000000000000    00000000000  0000000000000000000000000000000000 00000                 00000000000000SSNS000000N0               00000                     000000  1000000000000000 00000000000000000000000000000000000000000 000000 N0000000000000000000000000000000000000000000000000000000000000000000000000000000000000000000000000 000000000000000000000000000000000000000000000000
FI001000102000010650000000000RAIANE DE JESUS RIBEIRO       RAIANE DE Rua HELIO LUIZ NASCIMENTO DE M                    PARADA CINQUENTA E SSAO PAULO           SP04897330                              D1100597720        21081996FSSAO PAULO           SP000000900371SP00101001N455050188070000000000000000000455083083      SSP  SP0101001                                                                                                            0000000000000000000000000000000000010            00000000000000000000000000000000000000000000    00000000000  0000000000000000000000000000000000 00000                 00000000000000SSNS000000N0               00000                     000000  1000000000000000 00000000000000000000000000000000000000000 000000 N0000000000000000000000000000000000000000000000000000000000000000000000000000000000000000000000000 000000000000000000000000000000000000000000000000
FI001000103000010660000000000ISRAEL MAIA DOS SANTOS        ISRAEL MAIRua MATOS DE CARRICO                              PARQUE COCAIA       SAO PAULO           SP04850110                              D1100552811        03071997MSSAO PAULO           SP000000400401SP00101001N460092278600000000000000000000374805696      SSP  SP0101001                                                                                                            0000000000000000000000000000000000010            00000000000000000000000000000000000000000000    00000000000  0000000000000000000000000000000000 00000                 00000000000000SSNS000000N0               00000                     000000  1000000000000000 00000000000000000000000000000000000000000 000000 N0000000000000000000000000000000000000000000000000000000000000000000000000000000000000000000000000 000000000000000000000000000000000000000000000000
FI001000104000005550000000000 HEDSON LUIZ MOREIRA DA SILVA  HEDSON LURua RUA JOAO PAES                                 CENTRO              SAO PAULO           SP06890000                              D1133333333        14051996MSJUQUITIBA           SP000000400408SP00000000N454992568020000000000000000000431935403      SSP  SP                                                                                                                   0000000000000000000000000000000000010            00000000000000000000000000000000000000000000    00000000000  0000000000000000000000000000000000 00000                 00000000000000SSNS000000N0               00000                     000000  1000000000000000 00000000000000000000000000000000000000000 000000 N0000000000000000000000000000000000000000000000000000000000000000000000000000000000000000000000000 000000000000000000000000000000000000000000000000
FI001000105000001750000000000GABRIEL DA SILVA FOGACA       GABRIEL DAAvenida PAULO GUILGUER REIMBER                    JARDIM MARIA FERNANDSAO PAULO           SP04858570                              D1100597422        29051997MSBALNEARIO CAMBORIU  SP000000700401SP00101001N369981438692068824431300000000370354898      SSP  SP0101001                                                                                                            0000000000000000000000000000000000010            00000000000000000000000000000000000000000000    00000000000  0000000000000000000000000000000000 00000                 00000000000000SSNS000000N0               00000                     000000  1000000000000000 00000000000000000000000000000000000000000 000000 N0000000000000000000000000000000000000000000000000000000000000000000000000000000000000000000000000 000000000000000000000000000000000000000000000000
FI001000106000005550000000000MURILO HENRIQUE DE PAULA PEREIMURILO HENAvenida ANDORINHA-DOS-BEIRAIS                     JARDIM DOM JOSE     SAO PAULO           SP05887000                              D1100478319        02031996MSSAO PAULO           SP000000900382SP00101001N435670528960000000000000000000371878810      SSP  SP0101001                                                                                                            0000000000000000000000000000000000010            00000000000000000000000000000000000000000000    00000000000  0000000000000000000000000000000000 00000                 00000000000000SSNS000000N0               00000                     000000  1000000000000000 00000000000000000000000000000000000000000 000000 N0000000000000000000000000000000000000000000000000000000000000000000000000000000000000000000000000 000000000000000000000000000000000000000000000000
FI001000107000005550000000000ALAN OLIVEIRA DA SILVA        ALAN OLIVEEstrada POCO FUNDO                                CHACARA SAO JORGE   ITAPECERICA DA SERRASP06856200                              D1100466761        06021996MSSAO PAULO           SP000000800409SP00101001N481418508141521443945100000000503806286      SSP  SP0101001                                                                                                            0000000000000000000000000000000000010            00000000000000000000000000000000000000000000    00000000000  0000000000000000000000000000000000 00000                 00000000000000SSNS000000N0               00000                     000000  1000000000000000 00000000000000000000000000000000000000000 000000 N0000000000000000000000000000000000000000000000000000000000000000000000000000000000000000000000000 000000000000000000000000000000000000000000000000
FI001000108000005550000000000JAQUELINE RAMOS LIMA          JAQUELINE Rua PRESIDENTE JANIO QUADROS                      JARDIM ANALANDIA    ITAPECERICA DA SERRASP06864610                              D1105926103        19101996FSSAO PAULO           SP000000400414SP00101001N458387648301470073616600000000529483300      SSP  SP0101001                                                                                                            0000000000000000000000000000000000010            00000000000000000000000000000000000000000000    00000000000  0000000000000000000000000000000000 00000                 00000000000000SSNS000000N0               00000                     000000  1000000000000000 00000000000000000000000000000000000000000 000000 N0000000000000000000000000000000000000000000000000000000000000000000000000000000000000000000000000 000000000000000000000000000000000000000000000000
FI001000109000005550000000000BEATRIZ SANTOS BARBOSA        BEATRIZ SARua JOAO ALVES FERREIRA                           CIPO-GUACU          EMBU-GUACU          SP06900000                              D1100466316        13031999FSSAO ROQUE           SP000000800431SP00101001N480294788792072687891400000000398843041      SSP  SP0101001                                                                                                            0000000000000000000000000000000000010            00000000000000000000000000000000000000000000    00000000000  0000000000000000000000000000000000 00000                 00000000000000SSNS000000N0               00000                     000000  1000000000000000 00000000000000000000000000000000000000000 000000 N0000000000000000000000000000000000000000000000000000000000000000000000000000000000000000000000000 000000000000000000000000000000000000000000000000
FI001000110000005550000000000VICTORIA CLAUDINO SILVA       VICTORIA CRua CORA CORALINA                                 JARDIM TAIMA        EMBU DAS ARTES      SP06823450                              D1109599984        15121997FSSAO PAULO           SP000000800401SP00101001N46799785895131547636340000000053254979X      SSP  SP0101001                                                                                                            0000000000000000000000000000000000010            00000000000000000000000000000000000000000000    00000000000  0000000000000000000000000000000000 00000                 00000000000000SSNS000000N0               00000                     000000  1000000000000000 00000000000000000000000000000000000000000 000000 N0000000000000000000000000000000000000000000000000000000000000000000000000000000000000000000000000 000000000000000000000000000000000000000000000000
FI001000111000005550000000000HUMBERTO JOSE DARIO FERNANDEZ HUMBERTO JVila VILA HARMONIA                                TEREZAS             S. LOURENCO DA SERRASP06890000                              D1100468634        10031997MSSAO PAULO           SP000000400422SP00101001N454314118020000000000000000000462779300      SSP  SP0101001                                                                                                            0000000000000000000000000000000000010            00000000000000000000000000000000000000000000    00000000000  0000000000000000000000000000000000 00000                 00000000000000SSNS000000N0               00000                     000000  1000000000000000 00000000000000000000000000000000000000000 000000 N0000000000000000000000000000000000000000000000000000000000000000000000000000000000000000000000000 000000000000000000000000000000000000000000000000
